:1000000033C0000041C000003FC000003DC0000000
:100010003BC0000039C0000037C0000035C0000000
:1000200033C0000031C000002FC000002DC0000010
:100030002BC0000029C0000027C0000025C0000020
:1000400023C0000021C000001FC000001DC0000030
:100050001BC0000019C0000017C0000015C0000040
:1000600013C0000011C0000011241FBECFEFD8E064
:10007000DEBFCDBF21E0A0E0B1E001C01D92A03104
:10008000B207E1F7A2D0F3C0BBCFE8E0F1E0A0E017
:10009000B1E020E131E0818190E0982F8827408114
:1000A000842B8D939D9332962E173F07A1F70895C9
:1000B0000F931F93CF93DF938C0168EE73E0C3D04F
:1000C000862F24D0C80164E670E0BDD0CB01CAE021
:1000D000D0E0BE01B8D01AD0C801BE01B4D0182FEC
:1000E000CB01BE01B0D012D0812FDF91CF911F91F3
:1000F0000F910CC01092C50087E08093C40088E186
:100100008093C10086E08093C20008959091C00062
:1001100095FFFCCF8093C600089583E6F7DF88E65D
:10012000F5DF81E3F3DF8AE3F1DF80E2EFCF83E6FF
:10013000EDDF88E6EBDF82E3E9DF8AE3E7DF80E2F9
:10014000E5CF83E6E3DF88E6E1DF83E3DFDF8AE311
:10015000DDDF80E2DBCF83E6D9DF88E6D7DF84E32B
:10016000D5DF8AE3D3DF80E2D1CF80E2CFDF8CE737
:10017000CDDF80E2CBCF89E08093B80084E080932C
:10018000BC0082E08093B900089584EA8093BC00AB
:100190008091BC0087FFFCCF089584E98093BC0068
:1001A000089584E88093BC008091BC0087FFFCCF59
:1001B0008091BB0008958093BB0084E88093BC00CD
:1001C0008091BC0087FFFCCF089594DFD4DFDDDF92
:1001D00084E3F1DF82E8EFDF84E3EDDF87E0EBDF4C
:1001E000DCDFD3DFC8E0D1E0DCDF899321E0C03180
:1001F000D207D1F74ADFD1DF90DF809100019091E3
:10020000010156DFB2DF93DF80910201909103017B
:100210004FDFABDF96DF809104019091050148DF4D
:10022000A4DF99DF809106019091070141DF8AE008
:100230006DDF8FEF99E628E1815090402040E1F793
:1002400000C00000CECFAA1BBB1B51E107C0AA1FF4
:10025000BB1FA617B70710F0A61BB70B881F991F67
:100260005A95A9F780959095BC01CD010895F89411
:02027000FFCFBE
:00000001FF
